{
  "contractName": "Elections",
  "abi": [
    {
      "constant": true,
      "inputs": [
        {
          "name": "",
          "type": "uint256"
        }
      ],
      "name": "candidates",
      "outputs": [
        {
          "name": "id",
          "type": "uint256"
        },
        {
          "name": "name",
          "type": "string"
        },
        {
          "name": "voteCount",
          "type": "uint256"
        }
      ],
      "payable": false,
      "stateMutability": "view",
      "type": "function"
    },
    {
      "constant": true,
      "inputs": [
        {
          "name": "",
          "type": "address"
        }
      ],
      "name": "voters",
      "outputs": [
        {
          "name": "",
          "type": "bool"
        }
      ],
      "payable": false,
      "stateMutability": "view",
      "type": "function"
    },
    {
      "constant": true,
      "inputs": [],
      "name": "candidateCount",
      "outputs": [
        {
          "name": "",
          "type": "uint256"
        }
      ],
      "payable": false,
      "stateMutability": "view",
      "type": "function"
    },
    {
      "inputs": [],
      "payable": false,
      "stateMutability": "nonpayable",
      "type": "constructor"
    },
    {
      "constant": false,
      "inputs": [
        {
          "name": "_candidateId",
          "type": "uint256"
        }
      ],
      "name": "vote",
      "outputs": [],
      "payable": false,
      "stateMutability": "nonpayable",
      "type": "function"
    }
  ],
  "bytecode": "0x608060405234801561001057600080fd5b5061005e6040805190810160405280600981526020017f506c6179657220233100000000000000000000000000000000000000000000008152506100b0640100000000026401000000009004565b6100ab6040805190810160405280600981526020017f506c6179657220233500000000000000000000000000000000000000000000008152506100b0640100000000026401000000009004565b6101d2565b6002600081548092919060010191905055506060604051908101604052806002548152602001828152602001600081525060016000600254815260200190815260200160002060008201518160000155602082015181600101908051906020019061011c92919061012d565b506040820151816002015590505050565b828054600181600116156101000203166002900490600052602060002090601f016020900481019282601f1061016e57805160ff191683800117855561019c565b8280016001018555821561019c579182015b8281111561019b578251825591602001919060010190610180565b5b5090506101a991906101ad565b5090565b6101cf91905b808211156101cb5760008160009055506001016101b3565b5090565b90565b6103d7806101e16000396000f300608060405260043610610062576000357c0100000000000000000000000000000000000000000000000000000000900463ffffffff1680630121b93f146100675780633477ee2e14610094578063a3ec138d14610148578063a9a981a3146101a3575b600080fd5b34801561007357600080fd5b50610092600480360381019080803590602001909291905050506101ce565b005b3480156100a057600080fd5b506100bf600480360381019080803590602001909291905050506102c3565b6040518084815260200180602001838152602001828103825284818151815260200191508051906020019080838360005b8381101561010b5780820151818401526020810190506100f0565b50505050905090810190601f1680156101385780820380516001836020036101000a031916815260200191505b5094505050505060405180910390f35b34801561015457600080fd5b50610189600480360381019080803573ffffffffffffffffffffffffffffffffffffffff169060200190929190505050610385565b604051808215151515815260200191505060405180910390f35b3480156101af57600080fd5b506101b86103a5565b6040518082815260200191505060405180910390f35b6000803373ffffffffffffffffffffffffffffffffffffffff1673ffffffffffffffffffffffffffffffffffffffff16815260200190815260200160002060009054906101000a900460ff1615151561022657600080fd5b60008111801561023857506002548111155b151561024357600080fd5b60016000803373ffffffffffffffffffffffffffffffffffffffff1673ffffffffffffffffffffffffffffffffffffffff16815260200190815260200160002060006101000a81548160ff021916908315150217905550600160008281526020019081526020016000206002016000815480929190600101919050555050565b6001602052806000526040600020600091509050806000015490806001018054600181600116156101000203166002900480601f0160208091040260200160405190810160405280929190818152602001828054600181600116156101000203166002900480156103755780601f1061034a57610100808354040283529160200191610375565b820191906000526020600020905b81548152906001019060200180831161035857829003601f168201915b5050505050908060020154905083565b60006020528060005260406000206000915054906101000a900460ff1681565b600254815600a165627a7a723058202bc0c9df37634645f5f569d960fc70eb40710510e59df0c31131bee3968aa8240029",
  "source": "pragma solidity ^0.4.24;\r\n\r\ncontract Elections {\r\n\r\n\t// Voter Model\r\n\tstruct Voter {\r\n\t\tbool voted;\r\n\t}\r\n\t// Voter Mapping\r\n\tmapping(address => bool) public voters;\r\n\r\n\t// Candidate Model\r\n\tstruct Candidate {\r\n\t\tuint id;\r\n\t\tstring name;\r\n\t\tuint voteCount;\r\n\t}\r\n\t// Candidate Mapping (Fetch / Store)\r\n\tmapping(uint => Candidate) public candidates;\r\n\t// Candidate Count\r\n\tuint public candidateCount;\r\n\r\n\tconstructor() public {\r\n\t\taddCandidate('Player #1');\r\n\t\taddCandidate('Player #5');\r\n  \t}\r\n\r\n  \tfunction addCandidate (string _name) private {\r\n  \t\tcandidateCount ++;\r\n  \t\tcandidates[candidateCount] = Candidate(candidateCount, _name, 0);\r\n  \t}\r\n\r\n  \tfunction vote (uint _candidateId) public {\r\n  \t\trequire(!voters[msg.sender]);\r\n  \t\trequire(_candidateId > 0 && _candidateId <= candidateCount);\r\n  \t\tvoters[msg.sender] = true;\r\n  \t\tcandidates[_candidateId].voteCount ++;\r\n  \t}\r\n}",
  "sourcePath": "G:\\Ether\\SLXN\\SLXN\\app\\contracts\\Elections.sol",
  "compiler": {
    "name": "solc",
    "version": "0.4.24+commit.e67f0147.Emscripten.clang"
  },
  "schemaVersion": "2.0.1",
  "updatedAt": "2018-08-16T23:02:50.491Z"
}